{
  "_format": "hh-sol-artifact-1",
  "contractName": "AgentRegistry",
  "sourceName": "contracts/AgentRegistry.sol",
  "abi": [
    {
      "anonymous": false,
      "inputs": [
        {
          "indexed": false,
          "internalType": "bytes32",
          "name": "agentId",
          "type": "bytes32"
        },
        {
          "indexed": false,
          "internalType": "string",
          "name": "ref",
          "type": "string"
        },
        {
          "indexed": false,
          "internalType": "address",
          "name": "by",
          "type": "address"
        }
      ],
      "name": "AgentCreated",
      "type": "event"
    },
    {
      "anonymous": false,
      "inputs": [
        {
          "indexed": false,
          "internalType": "bytes32",
          "name": "agentId",
          "type": "bytes32"
        },
        {
          "indexed": false,
          "internalType": "address",
          "name": "dev",
          "type": "address"
        }
      ],
      "name": "AgentDevAdded",
      "type": "event"
    },
    {
      "anonymous": false,
      "inputs": [
        {
          "indexed": false,
          "internalType": "bytes32",
          "name": "agentId",
          "type": "bytes32"
        },
        {
          "indexed": false,
          "internalType": "address",
          "name": "dev",
          "type": "address"
        }
      ],
      "name": "AgentDevRemoved",
      "type": "event"
    },
    {
      "anonymous": false,
      "inputs": [
        {
          "indexed": false,
          "internalType": "bytes32",
          "name": "agentId",
          "type": "bytes32"
        },
        {
          "indexed": false,
          "internalType": "address",
          "name": "by",
          "type": "address"
        }
      ],
      "name": "AgentDisabled",
      "type": "event"
    },
    {
      "anonymous": false,
      "inputs": [
        {
          "indexed": false,
          "internalType": "bytes32",
          "name": "agentId",
          "type": "bytes32"
        },
        {
          "indexed": false,
          "internalType": "address",
          "name": "by",
          "type": "address"
        }
      ],
      "name": "AgentEnabled",
      "type": "event"
    },
    {
      "anonymous": false,
      "inputs": [
        {
          "indexed": false,
          "internalType": "bytes32",
          "name": "agentId",
          "type": "bytes32"
        },
        {
          "indexed": false,
          "internalType": "address",
          "name": "from",
          "type": "address"
        },
        {
          "indexed": false,
          "internalType": "address",
          "name": "to",
          "type": "address"
        }
      ],
      "name": "AgentOwnershipTransferred",
      "type": "event"
    },
    {
      "anonymous": false,
      "inputs": [
        {
          "indexed": false,
          "internalType": "bytes32",
          "name": "agentId",
          "type": "bytes32"
        },
        {
          "indexed": false,
          "internalType": "uint256",
          "name": "version",
          "type": "uint256"
        },
        {
          "indexed": false,
          "internalType": "string",
          "name": "ref",
          "type": "string"
        },
        {
          "indexed": false,
          "internalType": "address",
          "name": "by",
          "type": "address"
        }
      ],
      "name": "AgentVersionPublished",
      "type": "event"
    },
    {
      "inputs": [
        {
          "internalType": "bytes32",
          "name": "_agentId",
          "type": "bytes32"
        },
        {
          "internalType": "address",
          "name": "_dev",
          "type": "address"
        }
      ],
      "name": "addAgentDev",
      "outputs": [],
      "stateMutability": "nonpayable",
      "type": "function"
    },
    {
      "inputs": [
        {
          "internalType": "bytes32",
          "name": "",
          "type": "bytes32"
        }
      ],
      "name": "agentDisabled",
      "outputs": [
        {
          "internalType": "bool",
          "name": "",
          "type": "bool"
        }
      ],
      "stateMutability": "view",
      "type": "function"
    },
    {
      "inputs": [
        {
          "internalType": "bytes32",
          "name": "",
          "type": "bytes32"
        }
      ],
      "name": "agentExists",
      "outputs": [
        {
          "internalType": "bool",
          "name": "",
          "type": "bool"
        }
      ],
      "stateMutability": "view",
      "type": "function"
    },
    {
      "inputs": [
        {
          "internalType": "bytes32",
          "name": "",
          "type": "bytes32"
        }
      ],
      "name": "agentLatestVersion",
      "outputs": [
        {
          "internalType": "uint256",
          "name": "",
          "type": "uint256"
        }
      ],
      "stateMutability": "view",
      "type": "function"
    },
    {
      "inputs": [
        {
          "internalType": "bytes32",
          "name": "",
          "type": "bytes32"
        },
        {
          "internalType": "uint256",
          "name": "",
          "type": "uint256"
        }
      ],
      "name": "agentReference",
      "outputs": [
        {
          "internalType": "string",
          "name": "",
          "type": "string"
        }
      ],
      "stateMutability": "view",
      "type": "function"
    },
    {
      "inputs": [
        {
          "internalType": "bytes32",
          "name": "_agentId",
          "type": "bytes32"
        },
        {
          "internalType": "string",
          "name": "_ref",
          "type": "string"
        }
      ],
      "name": "createAgent",
      "outputs": [],
      "stateMutability": "nonpayable",
      "type": "function"
    },
    {
      "inputs": [
        {
          "internalType": "bytes32",
          "name": "_agentId",
          "type": "bytes32"
        }
      ],
      "name": "disableAgent",
      "outputs": [],
      "stateMutability": "nonpayable",
      "type": "function"
    },
    {
      "inputs": [
        {
          "internalType": "bytes32",
          "name": "_agentId",
          "type": "bytes32"
        }
      ],
      "name": "enableAgent",
      "outputs": [],
      "stateMutability": "nonpayable",
      "type": "function"
    },
    {
      "inputs": [
        {
          "internalType": "bytes32",
          "name": "_agentId",
          "type": "bytes32"
        }
      ],
      "name": "getLatestRef",
      "outputs": [
        {
          "internalType": "string",
          "name": "",
          "type": "string"
        }
      ],
      "stateMutability": "view",
      "type": "function"
    },
    {
      "inputs": [
        {
          "internalType": "contract MinimalForwarderUpgradeable",
          "name": "forwarder",
          "type": "address"
        }
      ],
      "name": "initialize",
      "outputs": [],
      "stateMutability": "nonpayable",
      "type": "function"
    },
    {
      "inputs": [
        {
          "internalType": "address",
          "name": "forwarder",
          "type": "address"
        }
      ],
      "name": "isTrustedForwarder",
      "outputs": [
        {
          "internalType": "bool",
          "name": "",
          "type": "bool"
        }
      ],
      "stateMutability": "view",
      "type": "function"
    },
    {
      "inputs": [
        {
          "internalType": "bytes32",
          "name": "_agentId",
          "type": "bytes32"
        },
        {
          "internalType": "address",
          "name": "_dev",
          "type": "address"
        }
      ],
      "name": "removeAgentDev",
      "outputs": [],
      "stateMutability": "nonpayable",
      "type": "function"
    },
    {
      "inputs": [
        {
          "internalType": "bytes32",
          "name": "_agentId",
          "type": "bytes32"
        },
        {
          "internalType": "address",
          "name": "_to",
          "type": "address"
        }
      ],
      "name": "transferAgentOwnership",
      "outputs": [],
      "stateMutability": "nonpayable",
      "type": "function"
    },
    {
      "inputs": [
        {
          "internalType": "bytes32",
          "name": "_agentId",
          "type": "bytes32"
        },
        {
          "internalType": "string",
          "name": "_ref",
          "type": "string"
        }
      ],
      "name": "updateAgent",
      "outputs": [],
      "stateMutability": "nonpayable",
      "type": "function"
    }
  ],
  "bytecode": "0x608060405234801561001057600080fd5b50612763806100206000396000f3fe608060405234801561001057600080fd5b50600436106100e95760003560e01c80636a7095e31161008c578063a5b925d211610066578063a5b925d214610256578063c4d66de814610286578063e15091a2146102a2578063f8e66c6e146102d2576100e9565b80636a7095e3146102025780636dfa2fef1461021e5780637879ae7b1461023a576100e9565b80632a083465116100c85780632a08346514610156578063380619bb14610172578063572b6c05146101a25780636a47f4f6146101d2576100e9565b806224cdf2146100ee57806309c53a271461010a5780630d8cb27814610126575b600080fd5b61010860048036038101906101039190611b6d565b6102ee565b005b610124600480360381019061011f9190611b44565b6104b0565b005b610140600480360381019061013b9190611b44565b6106c1565b60405161014d9190611e8a565b60405180910390f35b610170600480360381019061016b9190611ba9565b6106e1565b005b61018c60048036038101906101879190611b44565b61088d565b604051610199919061217d565b60405180910390f35b6101bc60048036038101906101b79190611b1b565b6108a5565b6040516101c99190611e8a565b60405180910390f35b6101ec60048036038101906101e79190611bfd565b6108ff565b6040516101f99190611fdb565b60405180910390f35b61021c60048036038101906102179190611b6d565b6109ac565b005b61023860048036038101906102339190611b6d565b610c00565b005b610254600480360381019061024f9190611b44565b610dc2565b005b610270600480360381019061026b9190611b44565b610fd0565b60405161027d9190611e8a565b60405180910390f35b6102a0600480360381019061029b9190611c39565b610ff0565b005b6102bc60048036038101906102b79190611b44565b6110d3565b6040516102c99190611fdb565b60405180910390f35b6102ec60048036038101906102e79190611ba9565b6111a2565b005b816102f7611402565b73ffffffffffffffffffffffffffffffffffffffff166066600083815260200190815260200160002060009054906101000a900473ffffffffffffffffffffffffffffffffffffffff1673ffffffffffffffffffffffffffffffffffffffff1614610397576040517f08c379a000000000000000000000000000000000000000000000000000000000815260040161038e90611ffd565b60405180910390fd5b600073ffffffffffffffffffffffffffffffffffffffff168273ffffffffffffffffffffffffffffffffffffffff161415610407576040517f08c379a00000000000000000000000000000000000000000000000000000000081526004016103fe9061201d565b60405180910390fd5b61042c826067600086815260200190815260200160002061143490919063ffffffff16565b61046b576040517f08c379a00000000000000000000000000000000000000000000000000000000081526004016104629061215d565b60405180910390fd5b7f3abd19868328c96de107509ea68ef7fbe8b0d916643077d14c5f33dbf572a53683610495611402565b6040516104a3929190611ea5565b60405180910390a1505050565b806104b9611402565b73ffffffffffffffffffffffffffffffffffffffff166066600083815260200190815260200160002060009054906101000a900473ffffffffffffffffffffffffffffffffffffffff1673ffffffffffffffffffffffffffffffffffffffff16148061054d575061054c61052b611402565b6067600084815260200190815260200160002061146490919063ffffffff16565b5b61058c576040517f08c379a0000000000000000000000000000000000000000000000000000000008152600401610583906120bd565b60405180910390fd5b816069600082815260200190815260200160002060009054906101000a900460ff166105ed576040517f08c379a00000000000000000000000000000000000000000000000000000000081526004016105e49061209d565b60405180910390fd5b826068600082815260200190815260200160002060009054906101000a900460ff161561064f576040517f08c379a00000000000000000000000000000000000000000000000000000000081526004016106469061205d565b60405180910390fd5b60016068600086815260200190815260200160002060006101000a81548160ff0219169083151502179055507f0a570f21f16393b7b462abfe9536bee30f7911547097671f80fb7d2f2908344e846106a5611402565b6040516106b3929190611ea5565b60405180910390a150505050565b60686020528060005260406000206000915054906101000a900460ff1681565b816069600082815260200190815260200160002060009054906101000a900460ff1615610743576040517f08c379a000000000000000000000000000000000000000000000000000000000815260040161073a906120dd565b60405180910390fd5b61074b611402565b6066600085815260200190815260200160002060006101000a81548173ffffffffffffffffffffffffffffffffffffffff021916908373ffffffffffffffffffffffffffffffffffffffff16021790555060016069600085815260200190815260200160002060006101000a81548160ff02191690831515021790555081606a6000858152602001908152602001600020600080815260200190815260200160002090805190602001906108009291906119bc565b507f3fb68868592f9cbe88b7ab6f760982ce46981f0a76b4609e2ef8ba1e36273af7838361082c611402565b60405161083b93929190611f51565b60405180910390a17f5703130761babe8d891d09dc2e0ba0e0f545c2798f55daa85d215947ef3a60b583600084610870611402565b6040516108809493929190611f05565b60405180910390a1505050565b606b6020528060005260406000206000915090505481565b6000603360009054906101000a900473ffffffffffffffffffffffffffffffffffffffff1673ffffffffffffffffffffffffffffffffffffffff168273ffffffffffffffffffffffffffffffffffffffff16149050919050565b606a60205281600052604060002060205280600052604060002060009150915050805461092b9061234c565b80601f01602080910402602001604051908101604052809291908181526020018280546109579061234c565b80156109a45780601f10610979576101008083540402835291602001916109a4565b820191906000526020600020905b81548152906001019060200180831161098757829003601f168201915b505050505081565b816109b5611402565b73ffffffffffffffffffffffffffffffffffffffff166066600083815260200190815260200160002060009054906101000a900473ffffffffffffffffffffffffffffffffffffffff1673ffffffffffffffffffffffffffffffffffffffff1614610a55576040517f08c379a0000000000000000000000000000000000000000000000000000000008152600401610a4c90611ffd565b60405180910390fd5b600073ffffffffffffffffffffffffffffffffffffffff168273ffffffffffffffffffffffffffffffffffffffff161415610ac5576040517f08c379a0000000000000000000000000000000000000000000000000000000008152600401610abc9061213d565b60405180910390fd5b8173ffffffffffffffffffffffffffffffffffffffff166066600085815260200190815260200160002060009054906101000a900473ffffffffffffffffffffffffffffffffffffffff1673ffffffffffffffffffffffffffffffffffffffff161415610b67576040517f08c379a0000000000000000000000000000000000000000000000000000000008152600401610b5e9061207d565b60405180910390fd5b816066600085815260200190815260200160002060006101000a81548173ffffffffffffffffffffffffffffffffffffffff021916908373ffffffffffffffffffffffffffffffffffffffff1602179055507fc5f5c5cbe4eacc5301c81a3faa85abee1fc13485967f1dd5f8b8b170d511db9b83610be3611402565b84604051610bf393929190611ece565b60405180910390a1505050565b81610c09611402565b73ffffffffffffffffffffffffffffffffffffffff166066600083815260200190815260200160002060009054906101000a900473ffffffffffffffffffffffffffffffffffffffff1673ffffffffffffffffffffffffffffffffffffffff1614610ca9576040517f08c379a0000000000000000000000000000000000000000000000000000000008152600401610ca090611ffd565b60405180910390fd5b600073ffffffffffffffffffffffffffffffffffffffff168273ffffffffffffffffffffffffffffffffffffffff161415610d19576040517f08c379a0000000000000000000000000000000000000000000000000000000008152600401610d109061201d565b60405180910390fd5b610d3e826067600086815260200190815260200160002061149490919063ffffffff16565b610d7d576040517f08c379a0000000000000000000000000000000000000000000000000000000008152600401610d74906120fd565b60405180910390fd5b7f562a4954d968dadacb6b407d782f2cad3d9dbc2406388a79f7c822d4f446741b83610da7611402565b604051610db5929190611ea5565b60405180910390a1505050565b80610dcb611402565b73ffffffffffffffffffffffffffffffffffffffff166066600083815260200190815260200160002060009054906101000a900473ffffffffffffffffffffffffffffffffffffffff1673ffffffffffffffffffffffffffffffffffffffff161480610e5f5750610e5e610e3d611402565b6067600084815260200190815260200160002061146490919063ffffffff16565b5b610e9e576040517f08c379a0000000000000000000000000000000000000000000000000000000008152600401610e95906120bd565b60405180910390fd5b816069600082815260200190815260200160002060009054906101000a900460ff16610eff576040517f08c379a0000000000000000000000000000000000000000000000000000000008152600401610ef69061209d565b60405180910390fd5b6068600084815260200190815260200160002060009054906101000a900460ff16610f5f576040517f08c379a0000000000000000000000000000000000000000000000000000000008152600401610f569061211d565b60405180910390fd5b60006068600085815260200190815260200160002060006101000a81548160ff0219169083151502179055507fb02042f4079bf702a976aa95de4238d66f8dcfe9127c71987600a8be91245a7283610fb5611402565b604051610fc3929190611ea5565b60405180910390a1505050565b60696020528060005260406000206000915054906101000a900460ff1681565b600060019054906101000a900460ff1680611016575060008054906101000a900460ff16155b611055576040517f08c379a000000000000000000000000000000000000000000000000000000000815260040161104c9061203d565b60405180910390fd5b60008060019054906101000a900460ff1615905080156110a5576001600060016101000a81548160ff02191690831515021790555060016000806101000a81548160ff0219169083151502179055505b6110ae826114c4565b80156110cf5760008060016101000a81548160ff0219169083151502179055505b5050565b60606000606b6000848152602001908152602001600020549050606a60008481526020019081526020016000206000828152602001908152602001600020805461111c9061234c565b80601f01602080910402602001604051908101604052809291908181526020018280546111489061234c565b80156111955780601f1061116a57610100808354040283529160200191611195565b820191906000526020600020905b81548152906001019060200180831161117857829003601f168201915b5050505050915050919050565b816111ab611402565b73ffffffffffffffffffffffffffffffffffffffff166066600083815260200190815260200160002060009054906101000a900473ffffffffffffffffffffffffffffffffffffffff1673ffffffffffffffffffffffffffffffffffffffff16148061123f575061123e61121d611402565b6067600084815260200190815260200160002061146490919063ffffffff16565b5b61127e576040517f08c379a0000000000000000000000000000000000000000000000000000000008152600401611275906120bd565b60405180910390fd5b826069600082815260200190815260200160002060009054906101000a900460ff166112df576040517f08c379a00000000000000000000000000000000000000000000000000000000081526004016112d69061209d565b60405180910390fd5b836068600082815260200190815260200160002060009054906101000a900460ff1615611341576040517f08c379a00000000000000000000000000000000000000000000000000000000081526004016113389061205d565b60405180910390fd5b60006001606b600088815260200190815260200160002054611363919061220a565b905080606b60008881526020019081526020016000208190555084606a6000888152602001908152602001600020600083815260200190815260200160002090805190602001906113b59291906119bc565b507f5703130761babe8d891d09dc2e0ba0e0f545c2798f55daa85d215947ef3a60b58682876113e2611402565b6040516113f29493929190611f8f565b60405180910390a1505050505050565b600061140d336108a5565b1561142157601436033560601c9050611430565b6114296115af565b9050611431565b5b90565b600061145c836000018373ffffffffffffffffffffffffffffffffffffffff1660001b6115b7565b905092915050565b600061148c836000018373ffffffffffffffffffffffffffffffffffffffff1660001b611735565b905092915050565b60006114bc836000018373ffffffffffffffffffffffffffffffffffffffff1660001b611758565b905092915050565b600060019054906101000a900460ff16806114ea575060008054906101000a900460ff16155b611529576040517f08c379a00000000000000000000000000000000000000000000000000000000081526004016115209061203d565b60405180910390fd5b60008060019054906101000a900460ff161590508015611579576001600060016101000a81548160ff02191690831515021790555060016000806101000a81548160ff0219169083151502179055505b6115816117c8565b61158a826118a1565b80156115ab5760008060016101000a81548160ff0219169083151502179055505b5050565b600033905090565b600080836001016000848152602001908152602001600020549050600081146117295760006001826115e99190612260565b90506000600186600001805490506116019190612260565b90506000866000018281548110611641577f4e487b7100000000000000000000000000000000000000000000000000000000600052603260045260246000fd5b906000526020600020015490508087600001848154811061168b577f4e487b7100000000000000000000000000000000000000000000000000000000600052603260045260246000fd5b90600052602060002001819055508387600101600083815260200190815260200160002081905550866000018054806116ed577f4e487b7100000000000000000000000000000000000000000000000000000000600052603160045260246000fd5b6001900381819060005260206000200160009055905586600101600087815260200190815260200160002060009055600194505050505061172f565b60009150505b92915050565b600080836001016000848152602001908152602001600020541415905092915050565b60006117648383611735565b6117bd5782600001829080600181540180825580915050600190039060005260206000200160009091909190915055826000018054905083600101600084815260200190815260200160002081905550600190506117c2565b600090505b92915050565b600060019054906101000a900460ff16806117ee575060008054906101000a900460ff16155b61182d576040517f08c379a00000000000000000000000000000000000000000000000000000000081526004016118249061203d565b60405180910390fd5b60008060019054906101000a900460ff16159050801561187d576001600060016101000a81548160ff02191690831515021790555060016000806101000a81548160ff0219169083151502179055505b801561189e5760008060016101000a81548160ff0219169083151502179055505b50565b600060019054906101000a900460ff16806118c7575060008054906101000a900460ff16155b611906576040517f08c379a00000000000000000000000000000000000000000000000000000000081526004016118fd9061203d565b60405180910390fd5b60008060019054906101000a900460ff161590508015611956576001600060016101000a81548160ff02191690831515021790555060016000806101000a81548160ff0219169083151502179055505b81603360006101000a81548173ffffffffffffffffffffffffffffffffffffffff021916908373ffffffffffffffffffffffffffffffffffffffff16021790555080156119b85760008060016101000a81548160ff0219169083151502179055505b5050565b8280546119c89061234c565b90600052602060002090601f0160209004810192826119ea5760008555611a31565b82601f10611a0357805160ff1916838001178555611a31565b82800160010185558215611a31579182015b82811115611a30578251825591602001919060010190611a15565b5b509050611a3e9190611a42565b5090565b5b80821115611a5b576000816000905550600101611a43565b5090565b6000611a72611a6d846121bd565b612198565b905082815260208101848484011115611a8a57600080fd5b611a9584828561230a565b509392505050565b600081359050611aac816126d1565b92915050565b600081359050611ac1816126e8565b92915050565b600081359050611ad6816126ff565b92915050565b600082601f830112611aed57600080fd5b8135611afd848260208601611a5f565b91505092915050565b600081359050611b1581612716565b92915050565b600060208284031215611b2d57600080fd5b6000611b3b84828501611a9d565b91505092915050565b600060208284031215611b5657600080fd5b6000611b6484828501611ab2565b91505092915050565b60008060408385031215611b8057600080fd5b6000611b8e85828601611ab2565b9250506020611b9f85828601611a9d565b9150509250929050565b60008060408385031215611bbc57600080fd5b6000611bca85828601611ab2565b925050602083013567ffffffffffffffff811115611be757600080fd5b611bf385828601611adc565b9150509250929050565b60008060408385031215611c1057600080fd5b6000611c1e85828601611ab2565b9250506020611c2f85828601611b06565b9150509250929050565b600060208284031215611c4b57600080fd5b6000611c5984828501611ac7565b91505092915050565b611c6b81612294565b82525050565b611c7a816122a6565b82525050565b611c89816122b2565b82525050565b611c98816122f8565b82525050565b6000611ca9826121ee565b611cb381856121f9565b9350611cc3818560208601612319565b611ccc8161243c565b840191505092915050565b6000611ce4602b836121f9565b9150611cef8261244d565b604082019050919050565b6000611d076019836121f9565b9150611d128261249c565b602082019050919050565b6000611d2a602e836121f9565b9150611d35826124c5565b604082019050919050565b6000611d4d6011836121f9565b9150611d5882612514565b602082019050919050565b6000611d706018836121f9565b9150611d7b8261253d565b602082019050919050565b6000611d936014836121f9565b9150611d9e82612566565b602082019050919050565b6000611db66038836121f9565b9150611dc18261258f565b604082019050919050565b6000611dd96014836121f9565b9150611de4826125de565b602082019050919050565b6000611dfc6021836121f9565b9150611e0782612607565b604082019050919050565b6000611e1f6018836121f9565b9150611e2a82612656565b602082019050919050565b6000611e426019836121f9565b9150611e4d8261267f565b602082019050919050565b6000611e65601d836121f9565b9150611e70826126a8565b602082019050919050565b611e84816122ee565b82525050565b6000602082019050611e9f6000830184611c71565b92915050565b6000604082019050611eba6000830185611c80565b611ec76020830184611c62565b9392505050565b6000606082019050611ee36000830186611c80565b611ef06020830185611c62565b611efd6040830184611c62565b949350505050565b6000608082019050611f1a6000830187611c80565b611f276020830186611c8f565b8181036040830152611f398185611c9e565b9050611f486060830184611c62565b95945050505050565b6000606082019050611f666000830186611c80565b8181036020830152611f788185611c9e565b9050611f876040830184611c62565b949350505050565b6000608082019050611fa46000830187611c80565b611fb16020830186611e7b565b8181036040830152611fc38185611c9e565b9050611fd26060830184611c62565b95945050505050565b60006020820190508181036000830152611ff58184611c9e565b905092915050565b6000602082019050818103600083015261201681611cd7565b9050919050565b6000602082019050818103600083015261203681611cfa565b9050919050565b6000602082019050818103600083015261205681611d1d565b9050919050565b6000602082019050818103600083015261207681611d40565b9050919050565b6000602082019050818103600083015261209681611d63565b9050919050565b600060208201905081810360008301526120b681611d86565b9050919050565b600060208201905081810360008301526120d681611da9565b9050919050565b600060208201905081810360008301526120f681611dcc565b9050919050565b6000602082019050818103600083015261211681611def565b9050919050565b6000602082019050818103600083015261213681611e12565b9050919050565b6000602082019050818103600083015261215681611e35565b9050919050565b6000602082019050818103600083015261217681611e58565b9050919050565b60006020820190506121926000830184611e7b565b92915050565b60006121a26121b3565b90506121ae828261237e565b919050565b6000604051905090565b600067ffffffffffffffff8211156121d8576121d761240d565b5b6121e18261243c565b9050602081019050919050565b600081519050919050565b600082825260208201905092915050565b6000612215826122ee565b9150612220836122ee565b9250827fffffffffffffffffffffffffffffffffffffffffffffffffffffffffffffffff03821115612255576122546123af565b5b828201905092915050565b600061226b826122ee565b9150612276836122ee565b925082821015612289576122886123af565b5b828203905092915050565b600061229f826122ce565b9050919050565b60008115159050919050565b6000819050919050565b60006122c782612294565b9050919050565b600073ffffffffffffffffffffffffffffffffffffffff82169050919050565b6000819050919050565b6000612303826122ee565b9050919050565b82818337600083830152505050565b60005b8381101561233757808201518184015260208101905061231c565b83811115612346576000848401525b50505050565b6000600282049050600182168061236457607f821691505b60208210811415612378576123776123de565b5b50919050565b6123878261243c565b810181811067ffffffffffffffff821117156123a6576123a561240d565b5b80604052505050565b7f4e487b7100000000000000000000000000000000000000000000000000000000600052601160045260246000fd5b7f4e487b7100000000000000000000000000000000000000000000000000000000600052602260045260246000fd5b7f4e487b7100000000000000000000000000000000000000000000000000000000600052604160045260246000fd5b6000601f19601f8301169050919050565b7f4f6e6c79206167656e74206f776e65722063616e20706572666f726d2074686960008201527f73206f7065726174696f6e000000000000000000000000000000000000000000602082015250565b7f41646472657373283029206973206e6f7420616c6c6f77656400000000000000600082015250565b7f496e697469616c697a61626c653a20636f6e747261637420697320616c72656160008201527f647920696e697469616c697a6564000000000000000000000000000000000000602082015250565b7f4167656e742069732064697361626c6564000000000000000000000000000000600082015250565b7f4164647265737320697320616c7265616479206f776e65720000000000000000600082015250565b7f4167656e7420646f6573206e6f74206578697374000000000000000000000000600082015250565b7f4f6e6c79206167656e74206f776e6572206f72206167656e742064657620636160008201527f6e20706572666f726d2074686973206f7065726174696f6e0000000000000000602082015250565b7f4167656e7420616c726561647920657869737473000000000000000000000000600082015250565b7f4164647265737320697320616c726561647920616e206167656e742061646d6960008201527f6e00000000000000000000000000000000000000000000000000000000000000602082015250565b7f4167656e7420697320616c726561647920656e61626c65640000000000000000600082015250565b7f61646472657373283029206973206e6f7420616c6c6f77656400000000000000600082015250565b7f41646472657373206973206e6f7420616e206167656e742061646d696e000000600082015250565b6126da81612294565b81146126e557600080fd5b50565b6126f1816122b2565b81146126fc57600080fd5b50565b612708816122bc565b811461271357600080fd5b50565b61271f816122ee565b811461272a57600080fd5b5056fea26469706673582212205b8e114231dc1cdf317a16ce6ecca71744aa3b7fa75790f7e962df6e3323f57864736f6c63430008040033",
  "linkReferences": {},
  "deployedLinkReferences": {}
}