{
  "_format": "hh-sol-artifact-1",
  "contractName": "AgentRegistry",
  "sourceName": "contracts/AgentRegistry.sol",
  "abi": [
    {
      "anonymous": false,
      "inputs": [
        {
          "indexed": false,
          "internalType": "bytes32",
          "name": "poolId",
          "type": "bytes32"
        },
        {
          "indexed": false,
          "internalType": "bytes32",
          "name": "agentId",
          "type": "bytes32"
        },
        {
          "indexed": false,
          "internalType": "string",
          "name": "ref",
          "type": "string"
        },
        {
          "indexed": false,
          "internalType": "address",
          "name": "by",
          "type": "address"
        }
      ],
      "name": "AgentAdded",
      "type": "event"
    },
    {
      "anonymous": false,
      "inputs": [
        {
          "indexed": false,
          "internalType": "bytes32",
          "name": "poolId",
          "type": "bytes32"
        },
        {
          "indexed": false,
          "internalType": "bytes32",
          "name": "agentId",
          "type": "bytes32"
        },
        {
          "indexed": false,
          "internalType": "address",
          "name": "admin",
          "type": "address"
        },
        {
          "indexed": false,
          "internalType": "address",
          "name": "by",
          "type": "address"
        }
      ],
      "name": "AgentAdminAdded",
      "type": "event"
    },
    {
      "anonymous": false,
      "inputs": [
        {
          "indexed": false,
          "internalType": "bytes32",
          "name": "poolId",
          "type": "bytes32"
        },
        {
          "indexed": false,
          "internalType": "bytes32",
          "name": "agentId",
          "type": "bytes32"
        },
        {
          "indexed": false,
          "internalType": "address",
          "name": "admin",
          "type": "address"
        },
        {
          "indexed": false,
          "internalType": "address",
          "name": "by",
          "type": "address"
        }
      ],
      "name": "AgentAdminRemoved",
      "type": "event"
    },
    {
      "anonymous": false,
      "inputs": [
        {
          "indexed": false,
          "internalType": "bytes32",
          "name": "poolId",
          "type": "bytes32"
        },
        {
          "indexed": false,
          "internalType": "bytes32",
          "name": "agentId",
          "type": "bytes32"
        },
        {
          "indexed": false,
          "internalType": "address",
          "name": "by",
          "type": "address"
        }
      ],
      "name": "AgentRemoved",
      "type": "event"
    },
    {
      "anonymous": false,
      "inputs": [
        {
          "indexed": false,
          "internalType": "bytes32",
          "name": "poolId",
          "type": "bytes32"
        },
        {
          "indexed": false,
          "internalType": "bytes32",
          "name": "agentId",
          "type": "bytes32"
        },
        {
          "indexed": false,
          "internalType": "string",
          "name": "ref",
          "type": "string"
        },
        {
          "indexed": false,
          "internalType": "address",
          "name": "by",
          "type": "address"
        }
      ],
      "name": "AgentUpdated",
      "type": "event"
    },
    {
      "anonymous": false,
      "inputs": [
        {
          "indexed": false,
          "internalType": "bytes32",
          "name": "poolId",
          "type": "bytes32"
        },
        {
          "indexed": false,
          "internalType": "address",
          "name": "by",
          "type": "address"
        }
      ],
      "name": "PoolAdded",
      "type": "event"
    },
    {
      "anonymous": false,
      "inputs": [
        {
          "indexed": false,
          "internalType": "bytes32",
          "name": "poolId",
          "type": "bytes32"
        },
        {
          "indexed": false,
          "internalType": "address",
          "name": "addr",
          "type": "address"
        }
      ],
      "name": "PoolAdminAdded",
      "type": "event"
    },
    {
      "anonymous": false,
      "inputs": [
        {
          "indexed": false,
          "internalType": "bytes32",
          "name": "poolId",
          "type": "bytes32"
        },
        {
          "indexed": false,
          "internalType": "address",
          "name": "addr",
          "type": "address"
        }
      ],
      "name": "PoolAdminRemoved",
      "type": "event"
    },
    {
      "anonymous": false,
      "inputs": [
        {
          "indexed": false,
          "internalType": "bytes32",
          "name": "poolId",
          "type": "bytes32"
        },
        {
          "indexed": false,
          "internalType": "address",
          "name": "from",
          "type": "address"
        },
        {
          "indexed": false,
          "internalType": "address",
          "name": "to",
          "type": "address"
        }
      ],
      "name": "PoolOwnershipTransfered",
      "type": "event"
    },
    {
      "inputs": [
        {
          "internalType": "bytes32",
          "name": "_poolId",
          "type": "bytes32"
        },
        {
          "internalType": "bytes32",
          "name": "_agentId",
          "type": "bytes32"
        },
        {
          "internalType": "string",
          "name": "_ref",
          "type": "string"
        }
      ],
      "name": "addAgent",
      "outputs": [],
      "stateMutability": "nonpayable",
      "type": "function"
    },
    {
      "inputs": [
        {
          "internalType": "bytes32",
          "name": "_poolId",
          "type": "bytes32"
        },
        {
          "internalType": "bytes32",
          "name": "_agentId",
          "type": "bytes32"
        },
        {
          "internalType": "address",
          "name": "_admin",
          "type": "address"
        }
      ],
      "name": "addAgentAdmin",
      "outputs": [],
      "stateMutability": "nonpayable",
      "type": "function"
    },
    {
      "inputs": [
        {
          "internalType": "bytes32",
          "name": "_poolId",
          "type": "bytes32"
        }
      ],
      "name": "addPool",
      "outputs": [],
      "stateMutability": "nonpayable",
      "type": "function"
    },
    {
      "inputs": [
        {
          "internalType": "bytes32",
          "name": "_poolId",
          "type": "bytes32"
        },
        {
          "internalType": "address",
          "name": "admin",
          "type": "address"
        }
      ],
      "name": "addPoolAdmin",
      "outputs": [],
      "stateMutability": "nonpayable",
      "type": "function"
    },
    {
      "inputs": [
        {
          "internalType": "bytes32",
          "name": "_poolId",
          "type": "bytes32"
        },
        {
          "internalType": "bytes32",
          "name": "_agentId",
          "type": "bytes32"
        },
        {
          "internalType": "uint256",
          "name": "index",
          "type": "uint256"
        }
      ],
      "name": "agentAdminAt",
      "outputs": [
        {
          "internalType": "address",
          "name": "",
          "type": "address"
        }
      ],
      "stateMutability": "view",
      "type": "function"
    },
    {
      "inputs": [
        {
          "internalType": "bytes32",
          "name": "_poolId",
          "type": "bytes32"
        },
        {
          "internalType": "bytes32",
          "name": "_agentId",
          "type": "bytes32"
        }
      ],
      "name": "agentAdminLength",
      "outputs": [
        {
          "internalType": "uint256",
          "name": "",
          "type": "uint256"
        }
      ],
      "stateMutability": "view",
      "type": "function"
    },
    {
      "inputs": [
        {
          "internalType": "bytes32",
          "name": "_poolId",
          "type": "bytes32"
        },
        {
          "internalType": "uint256",
          "name": "index",
          "type": "uint256"
        }
      ],
      "name": "agentAt",
      "outputs": [
        {
          "internalType": "bytes32",
          "name": "",
          "type": "bytes32"
        },
        {
          "internalType": "string",
          "name": "",
          "type": "string"
        }
      ],
      "stateMutability": "view",
      "type": "function"
    },
    {
      "inputs": [
        {
          "internalType": "bytes32",
          "name": "_poolId",
          "type": "bytes32"
        },
        {
          "internalType": "bytes32",
          "name": "_agentId",
          "type": "bytes32"
        }
      ],
      "name": "agentExists",
      "outputs": [
        {
          "internalType": "bool",
          "name": "",
          "type": "bool"
        }
      ],
      "stateMutability": "view",
      "type": "function"
    },
    {
      "inputs": [
        {
          "internalType": "bytes32",
          "name": "_poolId",
          "type": "bytes32"
        }
      ],
      "name": "agentLength",
      "outputs": [
        {
          "internalType": "uint256",
          "name": "",
          "type": "uint256"
        }
      ],
      "stateMutability": "view",
      "type": "function"
    },
    {
      "inputs": [
        {
          "internalType": "bytes32",
          "name": "_poolId",
          "type": "bytes32"
        },
        {
          "internalType": "bytes32",
          "name": "_agentId",
          "type": "bytes32"
        }
      ],
      "name": "agentRef",
      "outputs": [
        {
          "internalType": "string",
          "name": "",
          "type": "string"
        }
      ],
      "stateMutability": "view",
      "type": "function"
    },
    {
      "inputs": [
        {
          "internalType": "bytes32",
          "name": "_poolId",
          "type": "bytes32"
        },
        {
          "internalType": "uint256",
          "name": "index",
          "type": "uint256"
        }
      ],
      "name": "poolAdminAt",
      "outputs": [
        {
          "internalType": "address",
          "name": "",
          "type": "address"
        }
      ],
      "stateMutability": "view",
      "type": "function"
    },
    {
      "inputs": [
        {
          "internalType": "bytes32",
          "name": "_poolId",
          "type": "bytes32"
        }
      ],
      "name": "poolAdminLength",
      "outputs": [
        {
          "internalType": "uint256",
          "name": "",
          "type": "uint256"
        }
      ],
      "stateMutability": "view",
      "type": "function"
    },
    {
      "inputs": [
        {
          "internalType": "bytes32",
          "name": "",
          "type": "bytes32"
        }
      ],
      "name": "poolExistsMap",
      "outputs": [
        {
          "internalType": "bool",
          "name": "",
          "type": "bool"
        }
      ],
      "stateMutability": "view",
      "type": "function"
    },
    {
      "inputs": [
        {
          "internalType": "bytes32",
          "name": "",
          "type": "bytes32"
        }
      ],
      "name": "poolOwners",
      "outputs": [
        {
          "internalType": "address",
          "name": "",
          "type": "address"
        }
      ],
      "stateMutability": "view",
      "type": "function"
    },
    {
      "inputs": [
        {
          "internalType": "bytes32",
          "name": "_poolId",
          "type": "bytes32"
        },
        {
          "internalType": "bytes32",
          "name": "_agentId",
          "type": "bytes32"
        }
      ],
      "name": "removeAgent",
      "outputs": [],
      "stateMutability": "nonpayable",
      "type": "function"
    },
    {
      "inputs": [
        {
          "internalType": "bytes32",
          "name": "_poolId",
          "type": "bytes32"
        },
        {
          "internalType": "bytes32",
          "name": "_agentId",
          "type": "bytes32"
        },
        {
          "internalType": "address",
          "name": "_admin",
          "type": "address"
        }
      ],
      "name": "removeAgentAdmin",
      "outputs": [],
      "stateMutability": "nonpayable",
      "type": "function"
    },
    {
      "inputs": [
        {
          "internalType": "bytes32",
          "name": "_poolId",
          "type": "bytes32"
        },
        {
          "internalType": "address",
          "name": "admin",
          "type": "address"
        }
      ],
      "name": "removePoolAdmin",
      "outputs": [],
      "stateMutability": "nonpayable",
      "type": "function"
    },
    {
      "inputs": [
        {
          "internalType": "bytes32",
          "name": "_poolId",
          "type": "bytes32"
        },
        {
          "internalType": "address",
          "name": "_to",
          "type": "address"
        }
      ],
      "name": "transferPoolOwnership",
      "outputs": [],
      "stateMutability": "nonpayable",
      "type": "function"
    },
    {
      "inputs": [
        {
          "internalType": "bytes32",
          "name": "_poolId",
          "type": "bytes32"
        },
        {
          "internalType": "bytes32",
          "name": "_agentId",
          "type": "bytes32"
        },
        {
          "internalType": "string",
          "name": "_ref",
          "type": "string"
        }
      ],
      "name": "updateAgent",
      "outputs": [],
      "stateMutability": "nonpayable",
      "type": "function"
    }
  ],
  "bytecode": "0x608060405234801561001057600080fd5b50612c68806100206000396000f3fe608060405234801561001057600080fd5b50600436106101215760003560e01c80636a2189d2116100ad578063a013527711610071578063a01352771461034f578063a7f2f5ab1461037f578063acce56301461039b578063e0434e3f146103b7578063e491fa83146103d357610121565b80636a2189d214610286578063839ec6fd146102b657806384930b76146102e657806389d0a013146103025780638a0033fc1461033357610121565b80631e73feb1116100f45780631e73feb1146101be578063219d2d09146101ee57806343e322071461021e57806361e62a0f1461024e57806363438a971461026a57610121565b80630944cd34146101265780630a260645146101425780630ead48e6146101725780631b6feb92146101a2575b600080fd5b610140600480360381019061013b9190611e4c565b610403565b005b61015c60048036038101906101579190611dc1565b6105de565b6040516101699190612629565b60405180910390f35b61018c60048036038101906101879190611d5c565b610614565b6040516101999190612294565b60405180910390f35b6101bc60048036038101906101b79190611d85565b610634565b005b6101d860048036038101906101d39190611d5c565b61087a565b6040516101e59190612629565b60405180910390f35b61020860048036038101906102039190611d5c565b61089d565b6040516102159190612279565b60405180910390f35b61023860048036038101906102339190611f02565b6108d0565b6040516102459190612279565b60405180910390f35b61026860048036038101906102639190611dc1565b6108ff565b005b610284600480360381019061027f9190611dfd565b610ad4565b005b6102a0600480360381019061029b9190611dc1565b610cca565b6040516102ad9190612407565b60405180910390f35b6102d060048036038101906102cb9190611dc1565b610d81565b6040516102dd9190612294565b60405180910390f35b61030060048036038101906102fb9190611d85565b610daf565b005b61031c60048036038101906103179190611f02565b610f63565b60405161032a9291906123d7565b60405180910390f35b61034d60048036038101906103489190611d5c565b611022565b005b61036960048036038101906103649190611d5c565b61113c565b6040516103769190612629565b60405180910390f35b61039960048036038101906103949190611dfd565b611160565b005b6103b560048036038101906103b09190611d85565b6112e6565b005b6103d160048036038101906103cc9190611e4c565b61142a565b005b6103ed60048036038101906103e89190611eb3565b611686565b6040516103fa9190612279565b60405180910390f35b82823373ffffffffffffffffffffffffffffffffffffffff166002600084815260200190815260200160002060009054906101000a900473ffffffffffffffffffffffffffffffffffffffff1673ffffffffffffffffffffffffffffffffffffffff161480610493575061049233600360008581526020019081526020016000206116c790919063ffffffff16565b5b806104d057506104cf336004600085815260200190815260200160002060008481526020019081526020016000206116c790919063ffffffff16565b5b61050f576040517f08c379a0000000000000000000000000000000000000000000000000000000008152600401610506906125c9565b60405180910390fd5b610533846000808881526020019081526020016000206116f790919063ffffffff16565b15610573576040517f08c379a000000000000000000000000000000000000000000000000000000000815260040161056a90612469565b60405180910390fd5b61059984846000808981526020019081526020016000206117179092919063ffffffff16565b507fdd1417d47ca73bdaf24e5c1df4158e61cbbb73fda6562b14a16215ccfa201aeb858585336040516105cf949392919061238b565b60405180910390a15050505050565b600061060c600460008581526020019081526020016000206000848152602001908152602001600020611762565b905092915050565b60016020528060005260406000206000915054906101000a900460ff1681565b813373ffffffffffffffffffffffffffffffffffffffff166002600083815260200190815260200160002060009054906101000a900473ffffffffffffffffffffffffffffffffffffffff1673ffffffffffffffffffffffffffffffffffffffff16146106d6576040517f08c379a00000000000000000000000000000000000000000000000000000000081526004016106cd906125e9565b60405180910390fd5b600073ffffffffffffffffffffffffffffffffffffffff168273ffffffffffffffffffffffffffffffffffffffff161415610746576040517f08c379a000000000000000000000000000000000000000000000000000000000815260040161073d90612569565b60405180910390fd5b8173ffffffffffffffffffffffffffffffffffffffff166002600085815260200190815260200160002060009054906101000a900473ffffffffffffffffffffffffffffffffffffffff1673ffffffffffffffffffffffffffffffffffffffff1614156107e8576040517f08c379a00000000000000000000000000000000000000000000000000000000081526004016107df906124c9565b60405180910390fd5b816002600085815260200190815260200160002060006101000a81548173ffffffffffffffffffffffffffffffffffffffff021916908373ffffffffffffffffffffffffffffffffffffffff1602179055507fecc1c418cc7d2c3062b60c1d8f0b7748e2c8c10a109df4f6089b285f26b993d683338460405161086d939291906122d8565b60405180910390a1505050565b6000610896600080848152602001908152602001600020611777565b9050919050565b60026020528060005260406000206000915054906101000a900473ffffffffffffffffffffffffffffffffffffffff1681565b60006108f7826003600086815260200190815260200160002061178c90919063ffffffff16565b905092915050565b81813373ffffffffffffffffffffffffffffffffffffffff166002600084815260200190815260200160002060009054906101000a900473ffffffffffffffffffffffffffffffffffffffff1673ffffffffffffffffffffffffffffffffffffffff16148061098f575061098e33600360008581526020019081526020016000206116c790919063ffffffff16565b5b806109cc57506109cb336004600085815260200190815260200160002060008481526020019081526020016000206116c790919063ffffffff16565b5b610a0b576040517f08c379a0000000000000000000000000000000000000000000000000000000008152600401610a02906125c9565b60405180910390fd5b610a2f836000808781526020019081526020016000206116f790919063ffffffff16565b610a6e576040517f08c379a0000000000000000000000000000000000000000000000000000000008152600401610a65906124a9565b60405180910390fd5b610a92836000808781526020019081526020016000206117a690919063ffffffff16565b507fccc61238b7da918476155ec78f1d6f23cd587a3f796774b80c0c79dde8f57e6b848433604051610ac69392919061230f565b60405180910390a150505050565b823373ffffffffffffffffffffffffffffffffffffffff166002600083815260200190815260200160002060009054906101000a900473ffffffffffffffffffffffffffffffffffffffff1673ffffffffffffffffffffffffffffffffffffffff161480610b635750610b6233600360008481526020019081526020016000206116c790919063ffffffff16565b5b610ba2576040517f08c379a0000000000000000000000000000000000000000000000000000000008152600401610b9990612549565b60405180910390fd5b600073ffffffffffffffffffffffffffffffffffffffff168273ffffffffffffffffffffffffffffffffffffffff161415610c12576040517f08c379a0000000000000000000000000000000000000000000000000000000008152600401610c0990612489565b60405180910390fd5b610c48826004600087815260200190815260200160002060008681526020019081526020016000206117e790919063ffffffff16565b610c87576040517f08c379a0000000000000000000000000000000000000000000000000000000008152600401610c7e90612529565b60405180910390fd5b7f11cbfe7067a564a8ddb9a780914987915bc0d29835c8b0554a9d9db2e51064ed84848433604051610cbc9493929190612346565b60405180910390a150505050565b6060610cf08260008086815260200190815260200160002061181790919063ffffffff16565b8054610cfb9061279e565b80601f0160208091040260200160405190810160405280929190818152602001828054610d279061279e565b8015610d745780601f10610d4957610100808354040283529160200191610d74565b820191906000526020600020905b815481529060010190602001808311610d5757829003601f168201915b5050505050905092915050565b6000610da7826000808681526020019081526020016000206116f790919063ffffffff16565b905092915050565b813373ffffffffffffffffffffffffffffffffffffffff166002600083815260200190815260200160002060009054906101000a900473ffffffffffffffffffffffffffffffffffffffff1673ffffffffffffffffffffffffffffffffffffffff1614610e51576040517f08c379a0000000000000000000000000000000000000000000000000000000008152600401610e48906125e9565b60405180910390fd5b600073ffffffffffffffffffffffffffffffffffffffff168273ffffffffffffffffffffffffffffffffffffffff161415610ec1576040517f08c379a0000000000000000000000000000000000000000000000000000000008152600401610eb890612489565b60405180910390fd5b610ee682600360008681526020019081526020016000206117e790919063ffffffff16565b610f25576040517f08c379a0000000000000000000000000000000000000000000000000000000008152600401610f1c906124e9565b60405180910390fd5b7f4c2f0be874d7047c389e9fadf454854a8f5b72b49de199c7d60831b6c462a9a08383604051610f569291906122af565b60405180910390a1505050565b60006060610f8b8360008087815260200190815260200160002061183690919063ffffffff16565b808054610f979061279e565b80601f0160208091040260200160405190810160405280929190818152602001828054610fc39061279e565b80156110105780601f10610fe557610100808354040283529160200191611010565b820191906000526020600020905b815481529060010190602001808311610ff357829003601f168201915b50505050509050915091509250929050565b6001600082815260200190815260200160002060009054906101000a900460ff1615611083576040517f08c379a000000000000000000000000000000000000000000000000000000000815260040161107a90612449565b60405180910390fd5b336002600083815260200190815260200160002060006101000a81548173ffffffffffffffffffffffffffffffffffffffff021916908373ffffffffffffffffffffffffffffffffffffffff160217905550600180600083815260200190815260200160002060006101000a81548160ff0219169083151502179055507ffd0fa7919fbe3857a4236750e8d3e42ac691881d2f31c50ebe4cfc2a7705ee8081336040516111319291906122af565b60405180910390a150565b600061115960036000848152602001908152602001600020611762565b9050919050565b823373ffffffffffffffffffffffffffffffffffffffff166002600083815260200190815260200160002060009054906101000a900473ffffffffffffffffffffffffffffffffffffffff1673ffffffffffffffffffffffffffffffffffffffff1614806111ef57506111ee33600360008481526020019081526020016000206116c790919063ffffffff16565b5b61122e576040517f08c379a000000000000000000000000000000000000000000000000000000000815260040161122590612549565b60405180910390fd5b6112648260046000878152602001908152602001600020600086815260200190815260200160002061187590919063ffffffff16565b6112a3576040517f08c379a000000000000000000000000000000000000000000000000000000000815260040161129a906125a9565b60405180910390fd5b7f801fe4d9d51c0445c2938970ad5e042c3f2f2c387d67de4111af1bc60d22dba9848484336040516112d89493929190612346565b60405180910390a150505050565b813373ffffffffffffffffffffffffffffffffffffffff166002600083815260200190815260200160002060009054906101000a900473ffffffffffffffffffffffffffffffffffffffff1673ffffffffffffffffffffffffffffffffffffffff1614611388576040517f08c379a000000000000000000000000000000000000000000000000000000000815260040161137f906125e9565b60405180910390fd5b6113ad826003600086815260200190815260200160002061187590919063ffffffff16565b6113ec576040517f08c379a00000000000000000000000000000000000000000000000000000000081526004016113e390612609565b60405180910390fd5b7f25fcb4cb225521d9a561fd90af5809d997ae0fa769a5c95d90750162623bf624838360405161141d9291906122af565b60405180910390a1505050565b82823373ffffffffffffffffffffffffffffffffffffffff166002600084815260200190815260200160002060009054906101000a900473ffffffffffffffffffffffffffffffffffffffff1673ffffffffffffffffffffffffffffffffffffffff1614806114ba57506114b933600360008581526020019081526020016000206116c790919063ffffffff16565b5b806114f757506114f6336004600085815260200190815260200160002060008481526020019081526020016000206116c790919063ffffffff16565b5b611536576040517f08c379a000000000000000000000000000000000000000000000000000000000815260040161152d906125c9565b60405180910390fd5b61155a846000808881526020019081526020016000206116f790919063ffffffff16565b611599576040517f08c379a000000000000000000000000000000000000000000000000000000000815260040161159090612589565b60405180910390fd5b82805190602001206115c58560008089815260200190815260200160002061181790919063ffffffff16565b6040516115d29190612262565b6040518091039020141561161b576040517f08c379a000000000000000000000000000000000000000000000000000000000815260040161161290612509565b60405180910390fd5b61164184846000808981526020019081526020016000206117179092919063ffffffff16565b507f8a33912f31f80df098dcad04aba17afc8c52d0f700baf2750ea3899f9230a85085858533604051611677949392919061238b565b60405180910390a15050505050565b60006116be8260046000878152602001908152602001600020600086815260200190815260200160002061178c90919063ffffffff16565b90509392505050565b60006116ef836000018373ffffffffffffffffffffffffffffffffffffffff1660001b6118a5565b905092915050565b600061170f82846000016118c890919063ffffffff16565b905092915050565b6000818460020160008581526020019081526020016000209080519060200190611742929190611bd2565b5061175983856000016118df90919063ffffffff16565b90509392505050565b6000611770826000016118f6565b9050919050565b600061178582600001611907565b9050919050565b600061179b836000018361191c565b60001c905092915050565b600082600201600083815260200190815260200160002060006117c99190611c58565b6117df82846000016119b690919063ffffffff16565b905092915050565b600061180f836000018373ffffffffffffffffffffffffffffffffffffffff1660001b6119cd565b905092915050565b6000826002016000838152602001908152602001600020905092915050565b60008060006118518486600001611a3d90919063ffffffff16565b90508085600201600083815260200190815260200160002092509250509250929050565b600061189d836000018373ffffffffffffffffffffffffffffffffffffffff1660001b611a54565b905092915050565b600080836001016000848152602001908152602001600020541415905092915050565b60006118d783600001836118a5565b905092915050565b60006118ee83600001836119cd565b905092915050565b600081600001805490509050919050565b6000611915826000016118f6565b9050919050565b600081836000018054905011611967576040517f08c379a000000000000000000000000000000000000000000000000000000000815260040161195e90612429565b60405180910390fd5b8260000182815481106119a3577f4e487b7100000000000000000000000000000000000000000000000000000000600052603260045260246000fd5b9060005260206000200154905092915050565b60006119c58360000183611a54565b905092915050565b60006119d983836118a5565b611a32578260000182908060018154018082558091505060019003906000526020600020016000909190919091505582600001805490508360010160008481526020019081526020016000208190555060019050611a37565b600090505b92915050565b6000611a4c836000018361191c565b905092915050565b60008083600101600084815260200190815260200160002054905060008114611bc6576000600182611a8691906126d6565b9050600060018660000180549050611a9e91906126d6565b90506000866000018281548110611ade577f4e487b7100000000000000000000000000000000000000000000000000000000600052603260045260246000fd5b9060005260206000200154905080876000018481548110611b28577f4e487b7100000000000000000000000000000000000000000000000000000000600052603260045260246000fd5b9060005260206000200181905550838760010160008381526020019081526020016000208190555086600001805480611b8a577f4e487b7100000000000000000000000000000000000000000000000000000000600052603160045260246000fd5b60019003818190600052602060002001600090559055866001016000878152602001908152602001600020600090556001945050505050611bcc565b60009150505b92915050565b828054611bde9061279e565b90600052602060002090601f016020900481019282611c005760008555611c47565b82601f10611c1957805160ff1916838001178555611c47565b82800160010185558215611c47579182015b82811115611c46578251825591602001919060010190611c2b565b5b509050611c549190611c98565b5090565b508054611c649061279e565b6000825580601f10611c765750611c95565b601f016020900490600052602060002090810190611c949190611c98565b5b50565b5b80821115611cb1576000816000905550600101611c99565b5090565b6000611cc8611cc384612669565b612644565b905082815260208101848484011115611ce057600080fd5b611ceb84828561275c565b509392505050565b600081359050611d0281612bed565b92915050565b600081359050611d1781612c04565b92915050565b600082601f830112611d2e57600080fd5b8135611d3e848260208601611cb5565b91505092915050565b600081359050611d5681612c1b565b92915050565b600060208284031215611d6e57600080fd5b6000611d7c84828501611d08565b91505092915050565b60008060408385031215611d9857600080fd5b6000611da685828601611d08565b9250506020611db785828601611cf3565b9150509250929050565b60008060408385031215611dd457600080fd5b6000611de285828601611d08565b9250506020611df385828601611d08565b9150509250929050565b600080600060608486031215611e1257600080fd5b6000611e2086828701611d08565b9350506020611e3186828701611d08565b9250506040611e4286828701611cf3565b9150509250925092565b600080600060608486031215611e6157600080fd5b6000611e6f86828701611d08565b9350506020611e8086828701611d08565b925050604084013567ffffffffffffffff811115611e9d57600080fd5b611ea986828701611d1d565b9150509250925092565b600080600060608486031215611ec857600080fd5b6000611ed686828701611d08565b9350506020611ee786828701611d08565b9250506040611ef886828701611d47565b9150509250925092565b60008060408385031215611f1557600080fd5b6000611f2385828601611d08565b9250506020611f3485828601611d47565b9150509250929050565b611f478161270a565b82525050565b611f568161271c565b82525050565b611f6581612728565b82525050565b60008154611f788161279e565b611f8281866126ba565b94506001821660008114611f9d5760018114611fae57611fe1565b60ff19831686528186019350611fe1565b611fb78561269a565b60005b83811015611fd957815481890152600182019150602081019050611fba565b838801955050505b50505092915050565b6000611ff5826126af565b611fff81856126c5565b935061200f81856020860161276b565b6120188161288e565b840191505092915050565b60006120306022836126c5565b915061203b8261289f565b604082019050919050565b60006120536013836126c5565b915061205e826128ee565b602082019050919050565b6000612076601c836126c5565b915061208182612917565b602082019050919050565b60006120996019836126c5565b91506120a482612940565b602082019050919050565b60006120bc601c836126c5565b91506120c782612969565b602082019050919050565b60006120df6018836126c5565b91506120ea82612992565b602082019050919050565b6000612102601f836126c5565b915061210d826129bb565b602082019050919050565b60006121256032836126c5565b9150612130826129e4565b604082019050919050565b60006121486021836126c5565b915061215382612a33565b604082019050919050565b600061216b6038836126c5565b915061217682612a82565b604082019050919050565b600061218e6019836126c5565b915061219982612ad1565b602082019050919050565b60006121b1601e836126c5565b91506121bc82612afa565b602082019050919050565b60006121d4601d836126c5565b91506121df82612b23565b602082019050919050565b60006121f7603c836126c5565b915061220282612b4c565b604082019050919050565b600061221a601b836126c5565b915061222582612b9b565b602082019050919050565b600061223d601b836126c5565b915061224882612bc4565b602082019050919050565b61225c81612752565b82525050565b600061226e8284611f6b565b915081905092915050565b600060208201905061228e6000830184611f3e565b92915050565b60006020820190506122a96000830184611f4d565b92915050565b60006040820190506122c46000830185611f5c565b6122d16020830184611f3e565b9392505050565b60006060820190506122ed6000830186611f5c565b6122fa6020830185611f3e565b6123076040830184611f3e565b949350505050565b60006060820190506123246000830186611f5c565b6123316020830185611f5c565b61233e6040830184611f3e565b949350505050565b600060808201905061235b6000830187611f5c565b6123686020830186611f5c565b6123756040830185611f3e565b6123826060830184611f3e565b95945050505050565b60006080820190506123a06000830187611f5c565b6123ad6020830186611f5c565b81810360408301526123bf8185611fea565b90506123ce6060830184611f3e565b95945050505050565b60006040820190506123ec6000830185611f5c565b81810360208301526123fe8184611fea565b90509392505050565b600060208201905081810360008301526124218184611fea565b905092915050565b6000602082019050818103600083015261244281612023565b9050919050565b6000602082019050818103600083015261246281612046565b9050919050565b6000602082019050818103600083015261248281612069565b9050919050565b600060208201905081810360008301526124a28161208c565b9050919050565b600060208201905081810360008301526124c2816120af565b9050919050565b600060208201905081810360008301526124e2816120d2565b9050919050565b60006020820190508181036000830152612502816120f5565b9050919050565b6000602082019050818103600083015261252281612118565b9050919050565b600060208201905081810360008301526125428161213b565b9050919050565b600060208201905081810360008301526125628161215e565b9050919050565b6000602082019050818103600083015261258281612181565b9050919050565b600060208201905081810360008301526125a2816121a4565b9050919050565b600060208201905081810360008301526125c2816121c7565b9050919050565b600060208201905081810360008301526125e2816121ea565b9050919050565b600060208201905081810360008301526126028161220d565b9050919050565b6000602082019050818103600083015261262281612230565b9050919050565b600060208201905061263e6000830184612253565b92915050565b600061264e61265f565b905061265a82826127d0565b919050565b6000604051905090565b600067ffffffffffffffff8211156126845761268361285f565b5b61268d8261288e565b9050602081019050919050565b60008190508160005260206000209050919050565b600081519050919050565b600081905092915050565b600082825260208201905092915050565b60006126e182612752565b91506126ec83612752565b9250828210156126ff576126fe612801565b5b828203905092915050565b600061271582612732565b9050919050565b60008115159050919050565b6000819050919050565b600073ffffffffffffffffffffffffffffffffffffffff82169050919050565b6000819050919050565b82818337600083830152505050565b60005b8381101561278957808201518184015260208101905061276e565b83811115612798576000848401525b50505050565b600060028204905060018216806127b657607f821691505b602082108114156127ca576127c9612830565b5b50919050565b6127d98261288e565b810181811067ffffffffffffffff821117156127f8576127f761285f565b5b80604052505050565b7f4e487b7100000000000000000000000000000000000000000000000000000000600052601160045260246000fd5b7f4e487b7100000000000000000000000000000000000000000000000000000000600052602260045260246000fd5b7f4e487b7100000000000000000000000000000000000000000000000000000000600052604160045260246000fd5b6000601f19601f8301169050919050565b7f456e756d657261626c655365743a20696e646578206f7574206f6620626f756e60008201527f6473000000000000000000000000000000000000000000000000000000000000602082015250565b7f506f6f6c20616c72656164792065786973747300000000000000000000000000600082015250565b7f4167656e7420616c726561647920657869737473206f6e20706f6f6c00000000600082015250565b7f41646472657373283029206973206e6f7420616c6c6f77656400000000000000600082015250565b7f4167656e7420646f6573206e6f74206578697374206f6e20706f6f6c00000000600082015250565b7f4164647265737320697320616c7265616479206f776e65720000000000000000600082015250565b7f4164647265737320697320616c7265616479206120706f6f6c2061646d696e00600082015250565b7f4e6577207265666572656e6365206d75737420626520646966666572656e742060008201527f7468616e206f6c64207265666572656e63650000000000000000000000000000602082015250565b7f4164647265737320697320616c726561647920616e206167656e742061646d6960008201527f6e00000000000000000000000000000000000000000000000000000000000000602082015250565b7f4f6e6c7920706f6f6c206f776e6572206f7220706f6f6c2061646d696e20636160008201527f6e20706572666f726d2074686973206f7065726174696f6e0000000000000000602082015250565b7f61646472657373283029206973206e6f7420616c6c6f77656400000000000000600082015250565b7f4167656e74206d75737420657869737420746f20626520757064617465640000600082015250565b7f41646472657373206973206e6f7420616e206167656e742061646d696e000000600082015250565b7f4f6e6c7920706f6f6c206f776e65722c20706f6f6c2061646d696e2c206f722060008201527f6167656e74206f776e65722063616e20757064617465206167656e7400000000602082015250565b7f43616c6c6572206973206e6f74206f776e6572206f6620706f6f6c0000000000600082015250565b7f41646472657373206973206e6f74206120706f6f6c2061646d696e0000000000600082015250565b612bf68161270a565b8114612c0157600080fd5b50565b612c0d81612728565b8114612c1857600080fd5b50565b612c2481612752565b8114612c2f57600080fd5b5056fea264697066735822122088106bfe9b7da05c08d75e2d4ab1437342b8aacb32b4a317bc94c3293af9193064736f6c63430008040033",
  "linkReferences": {},
  "deployedLinkReferences": {}
}